:020000040800F2
:10000000400400209D01000815070008C9040008ED
:100010001107000873030008150F00080000000016
:10002000000000000000000000000000510A00086D
:1000300077030008000000009D070008550B00082A
:10004000B7010008B7010008B7010008B7010008B0
:10005000B7010008B7010008B7010008B7010008A0
:10006000B7010008B7010008B7010008B701000890
:10007000B7010008B7010008B7010008B701000880
:10008000B7010008B7010008B7010008B701000870
:10009000B7010008B7010008B7010008B701000860
:1000A000B7010008B7010008B7010008B701000850
:1000B000B7010008B7010008B7010008B701000840
:1000C000B7010008B7010008B7010008B701000830
:1000D000B70100087D0D0008B7010008B70100084E
:1000E000B7010008B7010008B7010008B701000810
:1000F000B7010008B7010008000000000000000080
:100100000000000000000000B7010008B70100086F
:100110000000000000000000B7010008B70100085F
:10012000B7010008B7010008B7010008B7010008CF
:10013000B7010008B7010008B7010008B7010008BF
:10014000B7010008000000000000000000000000EF
:10015000000000000000000000000000000000009F
:100160000000000000000000B7010008B70100080F
:10017000B701000800000000B701000800000000FF
:1001800000000000B7010008DFF80CD000F018F8FC
:1001900000480047390F0008400400200648804707
:1001A00006480047FEE7FEE7FEE7FEE7FEE7FEE75C
:1001B000FEE7FEE7FEE7FEE7D50B00088901000831
:1001C000064C074D06E0E06840F0010394E80700A4
:1001D00098471034AC42F6D3FFF7DAFF101000084E
:1001E0003010000821B1826842F00102826003E011
:1001F000826822F001028260704710B50446012136
:10020000480200F00BFB00214FF4007000F006FBE9
:1002100010BD014600208A6802F004020AB10120E4
:1002200000E0002070470146C86C80B2704702466B
:10023000002013680B400BB1012000E00020704744
:10024000014600208A6802F008020AB1012000E09D
:100250000020704730B5024600200023506820F48B
:1002600080700C7840EA0420506090680A4C20406E
:10027000D1E901542C434D7844EA45042043906071
:10028000D06A20F470000C7B641EE4B2234340EA81
:100290000350D06230BD0000FDF7F1FFF0B5044619
:1002A0000D4600200021092D11DDE068A5F10A06A8
:1002B00006EB4607072606FA07F18843A5F10A066A
:1002C00006EB460603FA06F10843E0600CE02069FD
:1002D00005EB4507072606FA07F1884305EB4506B7
:1002E00003FA06F108432061072A0FDA606B561EF5
:1002F00006EB86071F2606FA07F18843561E06EB13
:10030000860605FA06F10843606322E00D2A0FDA3B
:10031000206BD61F06EB86071F2606FA07F18843D7
:10032000D61F06EB860605FA06F10843206310E0A7
:10033000E06AA2F10D0606EB86071F2606FA07F112
:100340008843A2F10D0606EB860605FA06F108437E
:10035000E062F0BD816841F008018160704781680A
:1003600041F4A00181607047816841F0040181601F
:10037000704700BFFEE77047014605E0072200E036
:10038000521E002AFCD1491E0029F7D17047F0B552
:100390000A4600210023002400BF3DE0012505FAA4
:1003A00001F3156805EA03049C4234D11579012D47
:1003B00002D01579022D16D185684F000326BE4064
:1003C000B543856055794E00B540866835438560F4
:1003D000868801258D40AE438680868895798D403C
:1003E000ADB22E43868005684F000326BE40B5435C
:1003F000056015794E00B540066835430560C5684F
:100400004F000326BE40B543C560D5794E00B540C8
:10041000C6683543C560491C1029BFD3F0BDF0B58F
:10042000002300244D07ED0E02FA05F3CE1000F173
:10043000200555F826504E07F70E0F26BE40B5434F
:10044000CF1000F1200646F82750CE1000F120050D
:1004500055F8265045EA0304CE1000F1200545F872
:100460002640F0BD10B50446E1B20523012209483B
:10047000FFF714FF0748FFF772FF00BF022105488E
:10048000FFF7D5FE0028F9D00248FFF7CCFE00B2F6
:1004900010BD0000002401402DE9F04107460C4644
:1004A0000025002609E03846FFF7DCFF05444FF43D
:1004B0007A70FFF761FF701C46B2A642F3DB95FB32
:1004C000F4F000B2BDE8F08100BFFEE71FB54FF4C5
:1004D000804000F065F91C48FFF78FFE01214802BB
:1004E00000F08CF900208DF800008DF801004FF429
:1004F000602001900020029001208DF80C006946D8
:100500001148FFF7A7FE0523012200210E48FFF73F
:10051000C5FE01210C48FFF765FE0B48FFF71AFFE7
:1005200000BF0948FFF78CFE0028FAD10648FFF704
:100530001BFF00BF0448FFF76CFE0028FAD1012121
:100540000148FFF74FFE1FBD002401403A484069B3
:1005500040F48020384948610846406940F4002052
:1005600048610846406940F4801048610846406987
:1005700040F4003048610846406940F4001048618A
:1005800000202E4908602D4908310860091D0860C7
:100590002A48006840F488702849086027480830D5
:1005A000006840F44C702549083108602348143035
:1005B000008840F014002149143108802048006868
:1005C00040F4A0201E4908600846806840F470206E
:1005D00088600846808A40F4407088821948006824
:1005E00040F480301749086016480830006840F42D
:1005F000403014490831086012481430008840F433
:1006000080701049143108800F48006840F0804025
:100610000D4908600C480830006840F040400A4925
:100620000831086008481430008840F4004006494A
:100630001431088070470000001002400004004898
:1006400000100048000C00480008004800B589B0C0
:1006500001214FF4103000F0B1F80121880300F0BF
:10066000CDF807220921C806FFF7D9FE07220A2183
:100670004FF09040FFF7D3FE4FF400700790022038
:100680008DF8200003208DF8210000208DF8220035
:100690008DF8230007A94FF09040FFF778FE4FF444
:1006A0008060079002208DF8200003208DF8210043
:1006B00007A94FF09040FFF76AFE4FF4E130019038
:1006C000002002900390049006900C20059001A950
:1006D0000D4800F0B9FB25208DF8000000208DF8B2
:1006E000010001208DF802008DF80300684600F03B
:1006F00013F801220549044800F089FB0121024852
:1007000000F055FB09B000BD0038014005010500AF
:1007100000BFFEE77047000070B5002100230F22E4
:10072000C47804B3154C246804F4E064C4F5E064B0
:10073000210AC1F10403CA40447804FA03F1847821
:100740001440214309010E4C0678A155047804F0A9
:100750001F050124AC4005786D11AD0005F1E025C1
:10076000C5F8004109E0047804F01F050124AC40FD
:10077000044D0678761145F8264070BD0CED00E07A
:1007800000E400E080E100E002490143024A116018
:10079000704700000000FA050CED00E07047000013
:1007A0000549496821F44041034A516011464968AE
:1007B00001435160704700000010024029B1064A11
:1007C00052690243044B5A6104E0034A526982436E
:1007D000014B5A61704700000010024029B1064ADF
:1007E000D2690243044BDA6104E0034AD2698243CE
:1007F000014BDA61704700000010024029B1064A3F
:1008000092690243044B9A6104E0034A926982436D
:10081000014B9A61704700000010024029B1064A5E
:10082000D2680243044BDA6004E0034AD268824390
:10083000014BDA60704700000010024070B50021E3
:1008400000230024002500227A4E766806F00C0171
:1008500021B1042905D0082921D105E0764E066092
:1008600020E0764E06601DE0724E766806F4701346
:10087000704E766806F48034022606EB93431CB96A
:100880006F4E5E43066009E06A4EF66A06F00F0698
:10089000751C6A4EB6FBF5F65E43066002E0664ED6
:1008A000066000BF00BF634E766806F0F0010909DC
:1008B000644E725C0668D64046605E4E766806F40A
:1008C000E061090A5F4E725C4668D6408660594E08
:1008D000766806F46051C90A5A4E725C4668D64082
:1008E000C660544E766806F44041890B564E725CE1
:1008F000C668B6FBF2F606614E4E766806F07841A1
:10090000C1F3C361514E725C0668B6FBF2F64661F4
:10091000484E366B06F04006402E03D048F21206D1
:10092000866102E04FF400468661424E366B06F067
:100930001006102E02D0404EC66101E00668C66166
:100940003C4E366B06F02006202E02D03A4E066250
:1009500001E006680662374E366B06F0030616B9EC
:10096000C668466219E0334E366B06F00306012E68
:1009700002D10668466210E02E4E366B06F0030682
:10098000022E02D1B603466207E02A4E366B06F00D
:100990000306032E01D1284E4662264E366B06F41E
:1009A000403616B9866886621DE0224E366B06F424
:1009B0004036B6F5803F02D10668866213E01D4ED0
:1009C000366B06F44036B6F5003F03D14FF40046CF
:1009D000866208E0174E366B06F44036B6F5403FA7
:1009E00001D1154E8662134E366B06F4402616B9B9
:1009F0008668C6621DE00F4E366B06F44026B6F5DB
:100A0000802F02D10668C66213E00A4E366B06F4E8
:100A10004026B6F5002F03D14FF40046C66208E029
:100A2000044E366B06F44026B6F5402F01D1024E37
:100A3000C66270BD0010024000127A000024F4006B
:100A400000093D0018000020280000202C00002094
:100A5000704700000CB500200190009031480068FC
:100A600040F480302F49086000BF2E48006800F431
:100A7000003000900198401C0190009818B901982E
:100A8000B0F5A06FF1D12748006800F4003010B134
:100A90000120009001E0002000900098012840D142
:100AA0001220214908601F4840681E4948600846D6
:100AB000406848600846406840F4806048600846E6
:100AC000406820F47C1048600846406840F4E81014
:100AD00048600846C06A20F00F00C8620846C06A35
:100AE00040F00100C8620846006840F0807008606D
:100AF00000BF0C48006800F000700028F9D00948D9
:100B0000406820F00300074948600846406840F00C
:100B10000200486000BF0348406800F00C0008284D
:100B2000F9D10CBD0010024000200240042808D179
:100B30004FF0E021096941F004014FF0E02211611A
:100B400007E04FF0E021096921F004014FF0E022B5
:100B5000116170470348008880F004000149088053
:100B6000704700001404004870B5174800684FF43F
:100B70007A71B0FBF1F4E108B1F1807F00D31DE0A0
:100B800021F07F40401E4FF0E022506150170F22AD
:100B9000002807DA13071E0E0C4B00F00F052D1F5F
:100BA0005E5503E013071D0E094B1D5400BF0020C6
:100BB0004FF0E02290610720106100BF6FF0040049
:100BC000FFF7B4FF70BD00000400002018ED00E046
:100BD00000E400E010B51B48006840F470001949BB
:100BE00008601948006840F001001749086008468D
:100BF000406800F47F0048600846006813490840D8
:100C0000114908600846006820F480200860084602
:100C1000406820F4FE0048600846C06A20F00F00DB
:100C2000C8620846006B0A4908400749086300206B
:100C30008860FFF70FFF4FF00060024980390860BD
:100C400010BD000088ED00E000100240FFFFF6FE3E
:100C50008C0FFF0F10B501214020FFF7BFFD4FF4AF
:100C60007A701A4908600320091F08801748143851
:100C7000008840F060001549143908800846008853
:100C800040F0080008800846008840F4C040088012
:100C90000846008840F4006008800C480C38008842
:100CA00041F21111084309490C39088007482C38D2
:100CB000008840F0010005492C39088000200349D4
:100CC00008310860091D086010BD00002C180040A4
:100CD00010B501210846FFF781FD4FF47A70C10677
:100CE000C862032008850846008B40F06000088336
:100CF0000846008B40F0080008830846008C41F24B
:100D000011110843890708840846008840F0010053
:100D100008800020486310BD10B501210820FFF7AE
:100D20005DFD4FF47A70144908600320091F0880A4
:100D300011481438008840F060000F4914390880C9
:100D40000846008840F0080008800B480C380088EE
:100D500041F21111084308490C39088006482C3823
:100D6000008840F0010004492C3908800020024925
:100D70000831086010BD00002C0C004010B505497A
:100D8000054800F01FF818B10249034800F006F8C2
:100D900010BD0000050105000038014010B500221B
:100DA00000230A0C012404FA02F3036210BD21B1EE
:100DB000026842F00102026003E0026822F00102D0
:100DC0000260704770B502460B46002400210025E2
:100DD0000020C3F30725D9B2012606FA01F1012D3F
:100DE00002D11668314006E0022D02D1566831402A
:100DF00001E0966831401C0C012606FA04F4D6691D
:100E0000344011B10CB1012000E0002070BDF0B5FC
:100E1000034600240026002500201846C1F30724BD
:100E2000CEB2012707FA06F5022C01D1001D02E01F
:100E3000032C00D108301AB107682F43076002E085
:100E40000768AF430760F0BD2DE9F0418CB0044660
:100E50000D460027B8460026206820F001002060DB
:100E6000666826F44056A86806436660266841F224
:100E70000C608643E96868680843296908430643AB
:100E80002660A66826F4407668690643A660684630
:100E9000FFF7D4FC1D48844202D1DDF8248007E02E
:100EA0001B48844202D1DDF8288001E0DDF82C8067
:100EB000206800F4004060B14FEA48002968B0FBA8
:100EC000F1F74FEA48002968B0FBF1F201FB120686
:100ED00007E02868B8FBF0F72868B8FBF0F100FBE2
:100EE00011862868B6EB500F00D37F1C206800F4F1
:100EF000004038B1C7F342064FF6F07107EA01002F
:100F000040EA0607A7810CB0BDE8F0810038014037
:100F10000044004000BFFEE702E008C8121F08C1FD
:100F2000002AFAD170477047002001E001C1121F6A
:100F3000002AFBD1704700004FF48060FFF724FCCB
:100F4000FFF712FEFFF702FB00F00EF8FFF7BEFA04
:100F5000FFF77CFB05210020FFF79EFA014908807E
:100F600000BFFEE7000000201CB52748406940F4A0
:100F70008010254948610846406940F400304861C6
:100F8000022208214FF09040FFF749FA01220F2179
:100F90004FF09040FFF743FA09220E211B48FFF75C
:100FA0003EFA09220F211948FFF739FA4FF40140A0
:100FB000009002208DF8040000208DF80600032028
:100FC0008DF8050000208DF8070069464FF090402D
:100FD000FFF7DDF94FF44040009002208DF8040047
:100FE00000208DF8060003208DF8050000208DF804
:100FF000070069460548FFF7CAF9FFF769FEFFF7E2
:101000008BFEFFF727FE1CBD0010024000040048C5
:1010100030100008000000203C000000180F0008FD
:101020006C1000083C00002004040000280F000899
:101030000000000000A24A040000000000000000C0
:10104000010203040607080900000000010203046E
:101050000102030406070809020406080204060840
:0C1060000A0C0E1014181C2024282C3040
:040000050800018965
:00000001FF
